:100000000C9434000C9446000C9446000C9446006A
:100010000C9446000C9446000C9446000C94460048
:100020000C9446000C9446000C9446000C94460038
:100030000C9446000C9446000C9446000C94460028
:100040000C9446000C9446000C9446000C94460018
:100050000C9446000C9446000C9446000C94460008
:100060000C9446000C94460011241FBECFEFD8E03C
:10007000DEBFCDBF11E0A0E0B1E001C01D92A63906
:10008000B107E1F70E9448000C94E0000C940000D6
:10009000FF920F931F93CF93DF93C0E0D0E0FF2434
:1000A000FA9400E41CE9FE01EE0FFF1FEC0FFD1FA8
:1000B000E050FF4F1282F182108280E091E062E313
:1000C00070E00E94DC00C8010197F1F72196C2336D
:1000D000D1054CF3C0E0D0E0E6CF90E087FD02C050
:1000E000289801C0289A2A9A000000002A989F5F49
:1000F000983011F0880FF2CF0895BF92CF92DF921F
:10010000EF92FF920F931F93CF93DF93182F092F36
:100110006B01B42E209A229A2A9880E00E946D00EA
:1001200080E00E946D0080E00E946D0080E00E94EF
:100130006D00212F302FC901EC01EE24FF24860130
:10014000000F111F0C0D1D1D80EEB80E11C08B2D60
:100150000E946D0088810E946D0089810E946D005F
:100160008A810E946D0083E090E0E80EF91E2396DC
:10017000E016F10660F380E00E946D0080E00E94CE
:100180006D0080E00E946D0080E00E946D0000E044
:1001900010E005C080E00E946D00005F1F4F0C154D
:1001A0001D05C0F3DF91CF911F910F91FF90EF904C
:1001B000DF90CF90BF90089541E00E947D000895A8
:0401C000F894FFCFE1
:00000001FF
